{"contracts/Batcher.sol":{"Batcher":{"abi":[{"inputs":[{"internalType":"address","name":"usdc","type":"address"},{"internalType":"address","name":"uniRouter","type":"address"},{"internalType":"address","name":"_vault","type":"address"},{"internalType":"address","name":"_weth","type":"address"},{"internalType":"bytes32","name":"_pairKey","type":"bytes32"},{"internalType":"uint256","name":"_kTarget","type":"uint256"},{"internalType":"uint256","name":"_timeoutSec","type":"uint256"}],"stateMutability":"nonpayable","type":"constructor"},{"anonymous":false,"inputs":[{"indexed":true,"internalType":"bytes32","name":"pair","type":"bytes32"},{"indexed":true,"internalType":"uint256","name":"batchId","type":"uint256"},{"indexed":false,"internalType":"uint256","name":"totalIn","type":"uint256"},{"indexed":false,"internalType":"uint256","name":"totalOut","type":"uint256"},{"indexed":false,"internalType":"uint256","name":"k","type":"uint256"}],"name":"BatchExecuted","type":"event"},{"anonymous":false,"inputs":[{"indexed":true,"internalType":"bytes32","name":"pair","type":"bytes32"},{"indexed":false,"internalType":"uint256","name":"openedAt","type":"uint256"}],"name":"BatchOpened","type":"event"},{"anonymous":false,"inputs":[{"indexed":true,"internalType":"uint256","name":"batchId","type":"uint256"},{"indexed":true,"internalType":"address","name":"user","type":"address"},{"indexed":false,"internalType":"uint256","name":"amount","type":"uint256"}],"name":"Claimed","type":"event"},{"anonymous":false,"inputs":[{"indexed":true,"internalType":"bytes32","name":"pair","type":"bytes32"},{"indexed":true,"internalType":"address","name":"user","type":"address"},{"indexed":false,"internalType":"uint256","name":"amount","type":"uint256"}],"name":"Contributed","type":"event"},{"inputs":[],"name":"USDC","outputs":[{"internalType":"contract IERC20","name":"","type":"address"}],"stateMutability":"view","type":"function"},{"inputs":[],"name":"WETH","outputs":[{"internalType":"address","name":"","type":"address"}],"stateMutability":"view","type":"function"},{"inputs":[],"name":"batchCounter","outputs":[{"internalType":"uint256","name":"","type":"uint256"}],"stateMutability":"view","type":"function"},{"inputs":[{"internalType":"uint256","name":"batchId","type":"uint256"}],"name":"claim","outputs":[],"stateMutability":"nonpayable","type":"function"},{"inputs":[{"internalType":"uint256","name":"","type":"uint256"},{"internalType":"address","name":"","type":"address"}],"name":"claimable","outputs":[{"internalType":"uint256","name":"","type":"uint256"}],"stateMutability":"view","type":"function"},{"inputs":[{"internalType":"bytes32","name":"pair","type":"bytes32"},{"internalType":"uint256","name":"amount","type":"uint256"}],"name":"contribute","outputs":[],"stateMutability":"nonpayable","type":"function"},{"inputs":[{"internalType":"bytes32","name":"pair","type":"bytes32"}],"name":"executeBatch","outputs":[],"stateMutability":"nonpayable","type":"function"},{"inputs":[],"name":"kTarget","outputs":[{"internalType":"uint256","name":"","type":"uint256"}],"stateMutability":"view","type":"function"},{"inputs":[{"internalType":"bytes32","name":"pair","type":"bytes32"}],"name":"openBatch","outputs":[],"stateMutability":"nonpayable","type":"function"},{"inputs":[],"name":"pairKey","outputs":[{"internalType":"bytes32","name":"","type":"bytes32"}],"stateMutability":"view","type":"function"},{"inputs":[],"name":"router","outputs":[{"internalType":"contract IUniswapRouter","name":"","type":"address"}],"stateMutability":"view","type":"function"},{"inputs":[],"name":"timeoutSec","outputs":[{"internalType":"uint256","name":"","type":"uint256"}],"stateMutability":"view","type":"function"},{"inputs":[],"name":"vault","outputs":[{"internalType":"contract IIntentVault","name":"","type":"address"}],"stateMutability":"view","type":"function"},{"stateMutability":"payable","type":"receive"}],"evm":{"bytecode":{"linkReferences":{},"object":"61012060405234801561001157600080fd5b5060405161114338038061114383398101604081905261003091610080565b6001600160a01b0396871660805294861660a05292851660c052931660e052610100929092526000919091556001556100f1565b80516001600160a01b038116811461007b57600080fd5b919050565b600080600080600080600060e0888a03121561009b57600080fd5b6100a488610064565b96506100b260208901610064565b95506100c060408901610064565b94506100ce60608901610064565b93506080880151925060a0880151915060c0880151905092959891949750929550565b60805160a05160c05160e05161010051610fd761016c6000396000818160e4015281816109140152610a3901526000818161023d01526106b9015260006102db0152600081816102a701528181610586015261070b0152600081816101b901528181610559015281816106650152610b500152610fd76000f3fe6080604052600436106100c65760003560e01c806389a302711161007f578063b953964211610059578063b95396421461025f578063e55ae0371461027f578063f887ea4014610295578063fbfa77cf146102c957600080fd5b806389a30271146101a7578063a0c7f71c146101f3578063ad5c46481461022b57600080fd5b806306f94331146100d25780631e41d4be14610119578063379607f51461012f5780635d6e62b21461015157806368233eef1461017157806383c067411461018757600080fd5b366100cd57005b600080fd5b3480156100de57600080fd5b506101067f000000000000000000000000000000000000000000000000000000000000000081565b6040519081526020015b60405180910390f35b34801561012557600080fd5b5061010660005481565b34801561013b57600080fd5b5061014f61014a366004610d10565b6102fd565b005b34801561015d57600080fd5b5061014f61016c366004610d10565b610434565b34801561017d57600080fd5b5061010660035481565b34801561019357600080fd5b5061014f6101a2366004610d10565b610912565b3480156101b357600080fd5b506101db7f000000000000000000000000000000000000000000000000000000000000000081565b6040516001600160a01b039091168152602001610110565b3480156101ff57600080fd5b5061010661020e366004610d29565b600460209081526000928352604080842090915290825290205481565b34801561023757600080fd5b506101db7f000000000000000000000000000000000000000000000000000000000000000081565b34801561026b57600080fd5b5061014f61027a366004610d65565b610a37565b34801561028b57600080fd5b5061010660015481565b3480156102a157600080fd5b506101db7f000000000000000000000000000000000000000000000000000000000000000081565b3480156102d557600080fd5b506101db7f000000000000000000000000000000000000000000000000000000000000000081565b6000818152600460209081526040808320338452909152902054806103535760405162461bcd60e51b81526020600482015260076024820152666e6f7468696e6760c81b60448201526064015b60405180910390fd5b60008281526004602090815260408083203380855292528083208390555183908381818185875af1925050503d80600081146103ab576040519150601f19603f3d011682016040523d82523d6000602084013e6103b0565b606091505b50509050806103f75760405162461bcd60e51b8152602060048201526013602482015272195d1a081d1c985b9cd9995c8819985a5b1959606a1b604482015260640161034a565b604051828152339084907f4ec90e965519d92681267467f775ada5bd214aa92c0dc93d90a5e880ce9ed026906020015b60405180910390a3505050565b60008181526002602052604090208054158015906104575750600181015460ff16155b6104935760405162461bcd60e51b815260206004820152600d60248201526c0dcde40dee0cadc40c4c2e8c6d609b1b604482015260640161034a565b60005460048201541015806104b6575060015481546104b29190610d9d565b4210155b6104f75760405162461bcd60e51b815260206004820152601260248201527118dbdb991a5d1a5bdb9cc81b9bdd081b595d60721b604482015260640161034a565b600081600201541161053d5760405162461bcd60e51b815260206004820152600f60248201526e06e6f7468696e6720746f207377617608c1b604482015260640161034a565b600281015460405163095ea7b360e01b81526001600160a01b037f0000000000000000000000000000000000000000000000000000000000000000169163095ea7b3916105c2917f0000000000000000000000000000000000000000000000000000000000000000916004016001600160a01b03929092168252602082015260400190565b6020604051808303816000875af11580156105e1573d6000803e3d6000fd5b505050506040513d601f19601f820116820180604052508101906106059190610db6565b6106425760405162461bcd60e51b815260206004820152600e60248201526d185c1c1c9bdd994819985a5b195960921b604482015260640161034a565b6040805160028082526060820183526000926020830190803683370190505090507f00000000000000000000000000000000000000000000000000000000000000008160008151811061069757610697610df5565b60200260200101906001600160a01b031690816001600160a01b0316815250507f0000000000000000000000000000000000000000000000000000000000000000816001815181106106eb576106eb610df5565b6001600160a01b03928316602091820292909201015260028301546000917f000000000000000000000000000000000000000000000000000000000000000016906318cbafe590838530610741426104b0610d9d565b6040518663ffffffff1660e01b8152600401610761959493929190610e0b565b6000604051808303816000875af1158015610780573d6000803e3d6000fd5b505050506040513d6000823e601f3d908101601f191682016040526107a89190810190610e7e565b9050600081600183516107bb9190610f3c565b815181106107cb576107cb610df5565b60209081029190910101516001858101805460ff1916909117905560038086018290558054919250600091829061080190610f4f565b9182905550905060005b60048601548110156108bd57600086600401828154811061082e5761082e610df5565b600091825260208083209091015460028a01546001600160a01b0390911680845260058b019092526040832054919350906108699087610f68565b6108739190610f7f565b60008581526004602090815260408083206001600160a01b03871684529091528120805492935083929091906108aa908490610d9d565b90915550506001909201915061080b9050565b50600285015460048601546040805192835260208301859052820152819087907f9d65322d939fd0a2d0032c87248c8e9f9b14cc177e27b2c049cb4b0356e5160b9060600160405180910390a3505050505050565b7f000000000000000000000000000000000000000000000000000000000000000081146109715760405162461bcd60e51b815260206004820152600d60248201526c0e0c2d2e440dad2e6dac2e8c6d609b1b604482015260640161034a565b6000818152600260205260409020805415806109915750600181015460ff165b6109cc5760405162461bcd60e51b815260206004820152600c60248201526b30b63932b0b23c9037b832b760a11b604482015260640161034a565b42815560018101805460ff19169055600060028201819055600382018190556109f9906004830190610cd6565b817f7f0f3217f4c79150be98065671be32c68869ee81bb33b1b3427ee5931059d9e042604051610a2b91815260200190565b60405180910390a25050565b7f00000000000000000000000000000000000000000000000000000000000000008214610a965760405162461bcd60e51b815260206004820152600d60248201526c0e0c2d2e440dad2e6dac2e8c6d609b1b604482015260640161034a565b6000828152600260205260409020805415801590610ab95750600181015460ff16155b610af55760405162461bcd60e51b815260206004820152600d60248201526c0dcde40dee0cadc40c4c2e8c6d609b1b604482015260640161034a565b60008211610b2e5760405162461bcd60e51b815260040161034a906020808252600490820152637a65726f60e01b604082015260600190565b6040516323b872dd60e01b8152336004820152306024820152604481018390527f00000000000000000000000000000000000000000000000000000000000000006001600160a01b0316906323b872dd906064016020604051808303816000875af1158015610ba1573d6000803e3d6000fd5b505050506040513d601f19601f82011682018060405250810190610bc59190610db6565b610c055760405162461bcd60e51b81526020600482015260116024820152701d1c985b9cd9995c919c9bdb4819985a5b607a1b604482015260640161034a565b33600090815260068201602052604090205460ff16610c615733600081815260068301602090815260408220805460ff191660019081179091556004850180549182018155835291200180546001600160a01b03191690911790555b33600090815260058201602052604081208054849290610c82908490610d9d565b9250508190555081816002016000828254610c9d9190610d9d565b9091555050604051828152339084907f679913ed0114150650d75872172932e8ecdbe786961c1e7c57b03a4b044b709090602001610427565b5080546000825590600052602060002090810190610cf49190610cf7565b50565b5b80821115610d0c5760008155600101610cf8565b5090565b600060208284031215610d2257600080fd5b5035919050565b60008060408385031215610d3c57600080fd5b8235915060208301356001600160a01b0381168114610d5a57600080fd5b809150509250929050565b60008060408385031215610d7857600080fd5b50508035926020909101359150565b634e487b7160e01b600052601160045260246000fd5b80820180821115610db057610db0610d87565b92915050565b600060208284031215610dc857600080fd5b81518015158114610dd857600080fd5b9392505050565b634e487b7160e01b600052604160045260246000fd5b634e487b7160e01b600052603260045260246000fd5b600060a08201878352602087602085015260a0604085015281875180845260c08601915060208901935060005b81811015610e5d5784516001600160a01b031683529383019391830191600101610e38565b50506001600160a01b03969096166060850152505050608001529392505050565b60006020808385031215610e9157600080fd5b825167ffffffffffffffff80821115610ea957600080fd5b818501915085601f830112610ebd57600080fd5b815181811115610ecf57610ecf610ddf565b8060051b604051601f19603f83011681018181108582111715610ef457610ef4610ddf565b604052918252848201925083810185019188831115610f1257600080fd5b938501935b82851015610f3057845184529385019392850192610f17565b98975050505050505050565b81810381811115610db057610db0610d87565b600060018201610f6157610f61610d87565b5060010190565b8082028115828204841417610db057610db0610d87565b600082610f9c57634e487b7160e01b600052601260045260246000fd5b50049056fea2646970667358221220579b10220b427ccdb09ece22979a28f76edb673c11716e2b54a0bb64fdfefaea64736f6c63430008190033","opcodes":"PUSH2 0x120 PUSH1 0x40 MSTORE CALLVALUE DUP1 ISZERO PUSH2 0x11 JUMPI PUSH1 0x0 DUP1 REVERT JUMPDEST POP PUSH1 0x40 MLOAD PUSH2 0x1143 CODESIZE SUB DUP1 PUSH2 0x1143 DUP4 CODECOPY DUP2 ADD PUSH1 0x40 DUP2 SWAP1 MSTORE PUSH2 0x30 SWAP2 PUSH2 0x80 JUMP JUMPDEST PUSH1 0x1 PUSH1 0x1 PUSH1 0xA0 SHL SUB SWAP7 DUP8 AND PUSH1 0x80 MSTORE SWAP5 DUP7 AND PUSH1 0xA0 MSTORE SWAP3 DUP6 AND PUSH1 0xC0 MSTORE SWAP4 AND PUSH1 0xE0 MSTORE PUSH2 0x100 SWAP3 SWAP1 SWAP3 MSTORE PUSH1 0x0 SWAP2 SWAP1 SWAP2 SSTORE PUSH1 0x1 SSTORE PUSH2 0xF1 JUMP JUMPDEST DUP1 MLOAD PUSH1 0x1 PUSH1 0x1 PUSH1 0xA0 SHL SUB DUP2 AND DUP2 EQ PUSH2 0x7B JUMPI PUSH1 0x0 DUP1 REVERT JUMPDEST SWAP2 SWAP1 POP JUMP JUMPDEST PUSH1 0x0 DUP1 PUSH1 0x0 DUP1 PUSH1 0x0 DUP1 PUSH1 0x0 PUSH1 0xE0 DUP9 DUP11 SUB SLT ISZERO PUSH2 0x9B JUMPI PUSH1 0x0 DUP1 REVERT JUMPDEST PUSH2 0xA4 DUP9 PUSH2 0x64 JUMP JUMPDEST SWAP7 POP PUSH2 0xB2 PUSH1 0x20 DUP10 ADD PUSH2 0x64 JUMP JUMPDEST SWAP6 POP PUSH2 0xC0 PUSH1 0x40 DUP10 ADD PUSH2 0x64 JUMP JUMPDEST SWAP5 POP PUSH2 0xCE PUSH1 0x60 DUP10 ADD PUSH2 0x64 JUMP JUMPDEST SWAP4 POP PUSH1 0x80 DUP9 ADD MLOAD SWAP3 POP PUSH1 0xA0 DUP9 ADD MLOAD SWAP2 POP PUSH1 0xC0 DUP9 ADD MLOAD SWAP1 POP SWAP3 SWAP6 SWAP9 SWAP2 SWAP5 SWAP8 POP SWAP3 SWAP6 POP JUMP JUMPDEST PUSH1 0x80 MLOAD PUSH1 0xA0 MLOAD PUSH1 0xC0 MLOAD PUSH1 0xE0 MLOAD PUSH2 0x100 MLOAD PUSH2 0xFD7 PUSH2 0x16C PUSH1 0x0 CODECOPY PUSH1 0x0 DUP2 DUP2 PUSH1 0xE4 ADD MSTORE DUP2 DUP2 PUSH2 0x914 ADD MSTORE PUSH2 0xA39 ADD MSTORE PUSH1 0x0 DUP2 DUP2 PUSH2 0x23D ADD MSTORE PUSH2 0x6B9 ADD MSTORE PUSH1 0x0 PUSH2 0x2DB ADD MSTORE PUSH1 0x0 DUP2 DUP2 PUSH2 0x2A7 ADD MSTORE DUP2 DUP2 PUSH2 0x586 ADD MSTORE PUSH2 0x70B ADD MSTORE PUSH1 0x0 DUP2 DUP2 PUSH2 0x1B9 ADD MSTORE DUP2 DUP2 PUSH2 0x559 ADD MSTORE DUP2 DUP2 PUSH2 0x665 ADD MSTORE PUSH2 0xB50 ADD MSTORE PUSH2 0xFD7 PUSH1 0x0 RETURN INVALID PUSH1 0x80 PUSH1 0x40 MSTORE PUSH1 0x4 CALLDATASIZE LT PUSH2 0xC6 JUMPI PUSH1 0x0 CALLDATALOAD PUSH1 0xE0 SHR DUP1 PUSH4 0x89A30271 GT PUSH2 0x7F JUMPI DUP1 PUSH4 0xB9539642 GT PUSH2 0x59 JUMPI DUP1 PUSH4 0xB9539642 EQ PUSH2 0x25F JUMPI DUP1 PUSH4 0xE55AE037 EQ PUSH2 0x27F JUMPI DUP1 PUSH4 0xF887EA40 EQ PUSH2 0x295 JUMPI DUP1 PUSH4 0xFBFA77CF EQ PUSH2 0x2C9 JUMPI PUSH1 0x0 DUP1 REVERT JUMPDEST DUP1 PUSH4 0x89A30271 EQ PUSH2 0x1A7 JUMPI DUP1 PUSH4 0xA0C7F71C EQ PUSH2 0x1F3 JUMPI DUP1 PUSH4 0xAD5C4648 EQ PUSH2 0x22B JUMPI PUSH1 0x0 DUP1 REVERT JUMPDEST DUP1 PUSH4 0x6F94331 EQ PUSH2 0xD2 JUMPI DUP1 PUSH4 0x1E41D4BE EQ PUSH2 0x119 JUMPI DUP1 PUSH4 0x379607F5 EQ PUSH2 0x12F JUMPI DUP1 PUSH4 0x5D6E62B2 EQ PUSH2 0x151 JUMPI DUP1 PUSH4 0x68233EEF EQ PUSH2 0x171 JUMPI DUP1 PUSH4 0x83C06741 EQ PUSH2 0x187 JUMPI PUSH1 0x0 DUP1 REVERT JUMPDEST CALLDATASIZE PUSH2 0xCD JUMPI STOP JUMPDEST PUSH1 0x0 DUP1 REVERT JUMPDEST CALLVALUE DUP1 ISZERO PUSH2 0xDE JUMPI PUSH1 0x0 DUP1 REVERT JUMPDEST POP PUSH2 0x106 PUSH32 0x0 DUP2 JUMP JUMPDEST PUSH1 0x40 MLOAD SWAP1 DUP2 MSTORE PUSH1 0x20 ADD JUMPDEST PUSH1 0x40 MLOAD DUP1 SWAP2 SUB SWAP1 RETURN JUMPDEST CALLVALUE DUP1 ISZERO PUSH2 0x125 JUMPI PUSH1 0x0 DUP1 REVERT JUMPDEST POP PUSH2 0x106 PUSH1 0x0 SLOAD DUP2 JUMP JUMPDEST CALLVALUE DUP1 ISZERO PUSH2 0x13B JUMPI PUSH1 0x0 DUP1 REVERT JUMPDEST POP PUSH2 0x14F PUSH2 0x14A CALLDATASIZE PUSH1 0x4 PUSH2 0xD10 JUMP JUMPDEST PUSH2 0x2FD JUMP JUMPDEST STOP JUMPDEST CALLVALUE DUP1 ISZERO PUSH2 0x15D JUMPI PUSH1 0x0 DUP1 REVERT JUMPDEST POP PUSH2 0x14F PUSH2 0x16C CALLDATASIZE PUSH1 0x4 PUSH2 0xD10 JUMP JUMPDEST PUSH2 0x434 JUMP JUMPDEST CALLVALUE DUP1 ISZERO PUSH2 0x17D JUMPI PUSH1 0x0 DUP1 REVERT JUMPDEST POP PUSH2 0x106 PUSH1 0x3 SLOAD DUP2 JUMP JUMPDEST CALLVALUE DUP1 ISZERO PUSH2 0x193 JUMPI PUSH1 0x0 DUP1 REVERT JUMPDEST POP PUSH2 0x14F PUSH2 0x1A2 CALLDATASIZE PUSH1 0x4 PUSH2 0xD10 JUMP JUMPDEST PUSH2 0x912 JUMP JUMPDEST CALLVALUE DUP1 ISZERO PUSH2 0x1B3 JUMPI PUSH1 0x0 DUP1 REVERT JUMPDEST POP PUSH2 0x1DB PUSH32 0x0 DUP2 JUMP JUMPDEST PUSH1 0x40 MLOAD PUSH1 0x1 PUSH1 0x1 PUSH1 0xA0 SHL SUB SWAP1 SWAP2 AND DUP2 MSTORE PUSH1 0x20 ADD PUSH2 0x110 JUMP JUMPDEST CALLVALUE DUP1 ISZERO PUSH2 0x1FF JUMPI PUSH1 0x0 DUP1 REVERT JUMPDEST POP PUSH2 0x106 PUSH2 0x20E CALLDATASIZE PUSH1 0x4 PUSH2 0xD29 JUMP JUMPDEST PUSH1 0x4 PUSH1 0x20 SWAP1 DUP2 MSTORE PUSH1 0x0 SWAP3 DUP4 MSTORE PUSH1 0x40 DUP1 DUP5 KECCAK256 SWAP1 SWAP2 MSTORE SWAP1 DUP3 MSTORE SWAP1 KECCAK256 SLOAD DUP2 JUMP JUMPDEST CALLVALUE DUP1 ISZERO PUSH2 0x237 JUMPI PUSH1 0x0 DUP1 REVERT JUMPDEST POP PUSH2 0x1DB PUSH32 0x0 DUP2 JUMP JUMPDEST CALLVALUE DUP1 ISZERO PUSH2 0x26B JUMPI PUSH1 0x0 DUP1 REVERT JUMPDEST POP PUSH2 0x14F PUSH2 0x27A CALLDATASIZE PUSH1 0x4 PUSH2 0xD65 JUMP JUMPDEST PUSH2 0xA37 JUMP JUMPDEST CALLVALUE DUP1 ISZERO PUSH2 0x28B JUMPI PUSH1 0x0 DUP1 REVERT JUMPDEST POP PUSH2 0x106 PUSH1 0x1 SLOAD DUP2 JUMP JUMPDEST CALLVALUE DUP1 ISZERO PUSH2 0x2A1 JUMPI PUSH1 0x0 DUP1 REVERT JUMPDEST POP PUSH2 0x1DB PUSH32 0x0 DUP2 JUMP JUMPDEST CALLVALUE DUP1 ISZERO PUSH2 0x2D5 JUMPI PUSH1 0x0 DUP1 REVERT JUMPDEST POP PUSH2 0x1DB PUSH32 0x0 DUP2 JUMP JUMPDEST PUSH1 0x0 DUP2 DUP2 MSTORE PUSH1 0x4 PUSH1 0x20 SWAP1 DUP2 MSTORE PUSH1 0x40 DUP1 DUP4 KECCAK256 CALLER DUP5 MSTORE SWAP1 SWAP2 MSTORE SWAP1 KECCAK256 SLOAD DUP1 PUSH2 0x353 JUMPI PUSH1 0x40 MLOAD PUSH3 0x461BCD PUSH1 0xE5 SHL DUP2 MSTORE PUSH1 0x20 PUSH1 0x4 DUP3 ADD MSTORE PUSH1 0x7 PUSH1 0x24 DUP3 ADD MSTORE PUSH7 0x6E6F7468696E67 PUSH1 0xC8 SHL PUSH1 0x44 DUP3 ADD MSTORE PUSH1 0x64 ADD JUMPDEST PUSH1 0x40 MLOAD DUP1 SWAP2 SUB SWAP1 REVERT JUMPDEST PUSH1 0x0 DUP3 DUP2 MSTORE PUSH1 0x4 PUSH1 0x20 SWAP1 DUP2 MSTORE PUSH1 0x40 DUP1 DUP4 KECCAK256 CALLER DUP1 DUP6 MSTORE SWAP3 MSTORE DUP1 DUP4 KECCAK256 DUP4 SWAP1 SSTORE MLOAD DUP4 SWAP1 DUP4 DUP2 DUP2 DUP2 DUP6 DUP8 GAS CALL SWAP3 POP POP POP RETURNDATASIZE DUP1 PUSH1 0x0 DUP2 EQ PUSH2 0x3AB JUMPI PUSH1 0x40 MLOAD SWAP2 POP PUSH1 0x1F NOT PUSH1 0x3F RETURNDATASIZE ADD AND DUP3 ADD PUSH1 0x40 MSTORE RETURNDATASIZE DUP3 MSTORE RETURNDATASIZE PUSH1 0x0 PUSH1 0x20 DUP5 ADD RETURNDATACOPY PUSH2 0x3B0 JUMP JUMPDEST PUSH1 0x60 SWAP2 POP JUMPDEST POP POP SWAP1 POP DUP1 PUSH2 0x3F7 JUMPI PUSH1 0x40 MLOAD PUSH3 0x461BCD PUSH1 0xE5 SHL DUP2 MSTORE PUSH1 0x20 PUSH1 0x4 DUP3 ADD MSTORE PUSH1 0x13 PUSH1 0x24 DUP3 ADD MSTORE PUSH19 0x195D1A081D1C985B9CD9995C8819985A5B1959 PUSH1 0x6A SHL PUSH1 0x44 DUP3 ADD MSTORE PUSH1 0x64 ADD PUSH2 0x34A JUMP JUMPDEST PUSH1 0x40 MLOAD DUP3 DUP2 MSTORE CALLER SWAP1 DUP5 SWAP1 PUSH32 0x4EC90E965519D92681267467F775ADA5BD214AA92C0DC93D90A5E880CE9ED026 SWAP1 PUSH1 0x20 ADD JUMPDEST PUSH1 0x40 MLOAD DUP1 SWAP2 SUB SWAP1 LOG3 POP POP POP JUMP JUMPDEST PUSH1 0x0 DUP2 DUP2 MSTORE PUSH1 0x2 PUSH1 0x20 MSTORE PUSH1 0x40 SWAP1 KECCAK256 DUP1 SLOAD ISZERO DUP1 ISZERO SWAP1 PUSH2 0x457 JUMPI POP PUSH1 0x1 DUP2 ADD SLOAD PUSH1 0xFF AND ISZERO JUMPDEST PUSH2 0x493 JUMPI PUSH1 0x40 MLOAD PUSH3 0x461BCD PUSH1 0xE5 SHL DUP2 MSTORE PUSH1 0x20 PUSH1 0x4 DUP3 ADD MSTORE PUSH1 0xD PUSH1 0x24 DUP3 ADD MSTORE PUSH13 0xDCDE40DEE0CADC40C4C2E8C6D PUSH1 0x9B SHL PUSH1 0x44 DUP3 ADD MSTORE PUSH1 0x64 ADD PUSH2 0x34A JUMP JUMPDEST PUSH1 0x0 SLOAD PUSH1 0x4 DUP3 ADD SLOAD LT ISZERO DUP1 PUSH2 0x4B6 JUMPI POP PUSH1 0x1 SLOAD DUP2 SLOAD PUSH2 0x4B2 SWAP2 SWAP1 PUSH2 0xD9D JUMP JUMPDEST TIMESTAMP LT ISZERO JUMPDEST PUSH2 0x4F7 JUMPI PUSH1 0x40 MLOAD PUSH3 0x461BCD PUSH1 0xE5 SHL DUP2 MSTORE PUSH1 0x20 PUSH1 0x4 DUP3 ADD MSTORE PUSH1 0x12 PUSH1 0x24 DUP3 ADD MSTORE PUSH18 0x18DBDB991A5D1A5BDB9CC81B9BDD081B595D PUSH1 0x72 SHL PUSH1 0x44 DUP3 ADD MSTORE PUSH1 0x64 ADD PUSH2 0x34A JUMP JUMPDEST PUSH1 0x0 DUP2 PUSH1 0x2 ADD SLOAD GT PUSH2 0x53D JUMPI PUSH1 0x40 MLOAD PUSH3 0x461BCD PUSH1 0xE5 SHL DUP2 MSTORE PUSH1 0x20 PUSH1 0x4 DUP3 ADD MSTORE PUSH1 0xF PUSH1 0x24 DUP3 ADD MSTORE PUSH15 0x6E6F7468696E6720746F207377617 PUSH1 0x8C SHL PUSH1 0x44 DUP3 ADD MSTORE PUSH1 0x64 ADD PUSH2 0x34A JUMP JUMPDEST PUSH1 0x2 DUP2 ADD SLOAD PUSH1 0x40 MLOAD PUSH4 0x95EA7B3 PUSH1 0xE0 SHL DUP2 MSTORE PUSH1 0x1 PUSH1 0x1 PUSH1 0xA0 SHL SUB PUSH32 0x0 AND SWAP2 PUSH4 0x95EA7B3 SWAP2 PUSH2 0x5C2 SWAP2 PUSH32 0x0 SWAP2 PUSH1 0x4 ADD PUSH1 0x1 PUSH1 0x1 PUSH1 0xA0 SHL SUB SWAP3 SWAP1 SWAP3 AND DUP3 MSTORE PUSH1 0x20 DUP3 ADD MSTORE PUSH1 0x40 ADD SWAP1 JUMP JUMPDEST PUSH1 0x20 PUSH1 0x40 MLOAD DUP1 DUP4 SUB DUP2 PUSH1 0x0 DUP8 GAS CALL ISZERO DUP1 ISZERO PUSH2 0x5E1 JUMPI RETURNDATASIZE PUSH1 0x0 DUP1 RETURNDATACOPY RETURNDATASIZE PUSH1 0x0 REVERT JUMPDEST POP POP POP POP PUSH1 0x40 MLOAD RETURNDATASIZE PUSH1 0x1F NOT PUSH1 0x1F DUP3 ADD AND DUP3 ADD DUP1 PUSH1 0x40 MSTORE POP DUP2 ADD SWAP1 PUSH2 0x605 SWAP2 SWAP1 PUSH2 0xDB6 JUMP JUMPDEST PUSH2 0x642 JUMPI PUSH1 0x40 MLOAD PUSH3 0x461BCD PUSH1 0xE5 SHL DUP2 MSTORE PUSH1 0x20 PUSH1 0x4 DUP3 ADD MSTORE PUSH1 0xE PUSH1 0x24 DUP3 ADD MSTORE PUSH14 0x185C1C1C9BDD994819985A5B1959 PUSH1 0x92 SHL PUSH1 0x44 DUP3 ADD MSTORE PUSH1 0x64 ADD PUSH2 0x34A JUMP JUMPDEST PUSH1 0x40 DUP1 MLOAD PUSH1 0x2 DUP1 DUP3 MSTORE PUSH1 0x60 DUP3 ADD DUP4 MSTORE PUSH1 0x0 SWAP3 PUSH1 0x20 DUP4 ADD SWAP1 DUP1 CALLDATASIZE DUP4 CALLDATACOPY ADD SWAP1 POP POP SWAP1 POP PUSH32 0x0 DUP2 PUSH1 0x0 DUP2 MLOAD DUP2 LT PUSH2 0x697 JUMPI PUSH2 0x697 PUSH2 0xDF5 JUMP JUMPDEST PUSH1 0x20 MUL PUSH1 0x20 ADD ADD SWAP1 PUSH1 0x1 PUSH1 0x1 PUSH1 0xA0 SHL SUB AND SWAP1 DUP2 PUSH1 0x1 PUSH1 0x1 PUSH1 0xA0 SHL SUB AND DUP2 MSTORE POP POP PUSH32 0x0 DUP2 PUSH1 0x1 DUP2 MLOAD DUP2 LT PUSH2 0x6EB JUMPI PUSH2 0x6EB PUSH2 0xDF5 JUMP JUMPDEST PUSH1 0x1 PUSH1 0x1 PUSH1 0xA0 SHL SUB SWAP3 DUP4 AND PUSH1 0x20 SWAP2 DUP3 MUL SWAP3 SWAP1 SWAP3 ADD ADD MSTORE PUSH1 0x2 DUP4 ADD SLOAD PUSH1 0x0 SWAP2 PUSH32 0x0 AND SWAP1 PUSH4 0x18CBAFE5 SWAP1 DUP4 DUP6 ADDRESS PUSH2 0x741 TIMESTAMP PUSH2 0x4B0 PUSH2 0xD9D JUMP JUMPDEST PUSH1 0x40 MLOAD DUP7 PUSH4 0xFFFFFFFF AND PUSH1 0xE0 SHL DUP2 MSTORE PUSH1 0x4 ADD PUSH2 0x761 SWAP6 SWAP5 SWAP4 SWAP3 SWAP2 SWAP1 PUSH2 0xE0B JUMP JUMPDEST PUSH1 0x0 PUSH1 0x40 MLOAD DUP1 DUP4 SUB DUP2 PUSH1 0x0 DUP8 GAS CALL ISZERO DUP1 ISZERO PUSH2 0x780 JUMPI RETURNDATASIZE PUSH1 0x0 DUP1 RETURNDATACOPY RETURNDATASIZE PUSH1 0x0 REVERT JUMPDEST POP POP POP POP PUSH1 0x40 MLOAD RETURNDATASIZE PUSH1 0x0 DUP3 RETURNDATACOPY PUSH1 0x1F RETURNDATASIZE SWAP1 DUP2 ADD PUSH1 0x1F NOT AND DUP3 ADD PUSH1 0x40 MSTORE PUSH2 0x7A8 SWAP2 SWAP1 DUP2 ADD SWAP1 PUSH2 0xE7E JUMP JUMPDEST SWAP1 POP PUSH1 0x0 DUP2 PUSH1 0x1 DUP4 MLOAD PUSH2 0x7BB SWAP2 SWAP1 PUSH2 0xF3C JUMP JUMPDEST DUP2 MLOAD DUP2 LT PUSH2 0x7CB JUMPI PUSH2 0x7CB PUSH2 0xDF5 JUMP JUMPDEST PUSH1 0x20 SWAP1 DUP2 MUL SWAP2 SWAP1 SWAP2 ADD ADD MLOAD PUSH1 0x1 DUP6 DUP2 ADD DUP1 SLOAD PUSH1 0xFF NOT AND SWAP1 SWAP2 OR SWAP1 SSTORE PUSH1 0x3 DUP1 DUP7 ADD DUP3 SWAP1 SSTORE DUP1 SLOAD SWAP2 SWAP3 POP PUSH1 0x0 SWAP2 DUP3 SWAP1 PUSH2 0x801 SWAP1 PUSH2 0xF4F JUMP JUMPDEST SWAP2 DUP3 SWAP1 SSTORE POP SWAP1 POP PUSH1 0x0 JUMPDEST PUSH1 0x4 DUP7 ADD SLOAD DUP2 LT ISZERO PUSH2 0x8BD JUMPI PUSH1 0x0 DUP7 PUSH1 0x4 ADD DUP3 DUP2 SLOAD DUP2 LT PUSH2 0x82E JUMPI PUSH2 0x82E PUSH2 0xDF5 JUMP JUMPDEST PUSH1 0x0 SWAP2 DUP3 MSTORE PUSH1 0x20 DUP1 DUP4 KECCAK256 SWAP1 SWAP2 ADD SLOAD PUSH1 0x2 DUP11 ADD SLOAD PUSH1 0x1 PUSH1 0x1 PUSH1 0xA0 SHL SUB SWAP1 SWAP2 AND DUP1 DUP5 MSTORE PUSH1 0x5 DUP12 ADD SWAP1 SWAP3 MSTORE PUSH1 0x40 DUP4 KECCAK256 SLOAD SWAP2 SWAP4 POP SWAP1 PUSH2 0x869 SWAP1 DUP8 PUSH2 0xF68 JUMP JUMPDEST PUSH2 0x873 SWAP2 SWAP1 PUSH2 0xF7F JUMP JUMPDEST PUSH1 0x0 DUP6 DUP2 MSTORE PUSH1 0x4 PUSH1 0x20 SWAP1 DUP2 MSTORE PUSH1 0x40 DUP1 DUP4 KECCAK256 PUSH1 0x1 PUSH1 0x1 PUSH1 0xA0 SHL SUB DUP8 AND DUP5 MSTORE SWAP1 SWAP2 MSTORE DUP2 KECCAK256 DUP1 SLOAD SWAP3 SWAP4 POP DUP4 SWAP3 SWAP1 SWAP2 SWAP1 PUSH2 0x8AA SWAP1 DUP5 SWAP1 PUSH2 0xD9D JUMP JUMPDEST SWAP1 SWAP2 SSTORE POP POP PUSH1 0x1 SWAP1 SWAP3 ADD SWAP2 POP PUSH2 0x80B SWAP1 POP JUMP JUMPDEST POP PUSH1 0x2 DUP6 ADD SLOAD PUSH1 0x4 DUP7 ADD SLOAD PUSH1 0x40 DUP1 MLOAD SWAP3 DUP4 MSTORE PUSH1 0x20 DUP4 ADD DUP6 SWAP1 MSTORE DUP3 ADD MSTORE DUP2 SWAP1 DUP8 SWAP1 PUSH32 0x9D65322D939FD0A2D0032C87248C8E9F9B14CC177E27B2C049CB4B0356E5160B SWAP1 PUSH1 0x60 ADD PUSH1 0x40 MLOAD DUP1 SWAP2 SUB SWAP1 LOG3 POP POP POP POP POP POP JUMP JUMPDEST PUSH32 0x0 DUP2 EQ PUSH2 0x971 JUMPI PUSH1 0x40 MLOAD PUSH3 0x461BCD PUSH1 0xE5 SHL DUP2 MSTORE PUSH1 0x20 PUSH1 0x4 DUP3 ADD MSTORE PUSH1 0xD PUSH1 0x24 DUP3 ADD MSTORE PUSH13 0xE0C2D2E440DAD2E6DAC2E8C6D PUSH1 0x9B SHL PUSH1 0x44 DUP3 ADD MSTORE PUSH1 0x64 ADD PUSH2 0x34A JUMP JUMPDEST PUSH1 0x0 DUP2 DUP2 MSTORE PUSH1 0x2 PUSH1 0x20 MSTORE PUSH1 0x40 SWAP1 KECCAK256 DUP1 SLOAD ISZERO DUP1 PUSH2 0x991 JUMPI POP PUSH1 0x1 DUP2 ADD SLOAD PUSH1 0xFF AND JUMPDEST PUSH2 0x9CC JUMPI PUSH1 0x40 MLOAD PUSH3 0x461BCD PUSH1 0xE5 SHL DUP2 MSTORE PUSH1 0x20 PUSH1 0x4 DUP3 ADD MSTORE PUSH1 0xC PUSH1 0x24 DUP3 ADD MSTORE PUSH12 0x30B63932B0B23C9037B832B7 PUSH1 0xA1 SHL PUSH1 0x44 DUP3 ADD MSTORE PUSH1 0x64 ADD PUSH2 0x34A JUMP JUMPDEST TIMESTAMP DUP2 SSTORE PUSH1 0x1 DUP2 ADD DUP1 SLOAD PUSH1 0xFF NOT AND SWAP1 SSTORE PUSH1 0x0 PUSH1 0x2 DUP3 ADD DUP2 SWAP1 SSTORE PUSH1 0x3 DUP3 ADD DUP2 SWAP1 SSTORE PUSH2 0x9F9 SWAP1 PUSH1 0x4 DUP4 ADD SWAP1 PUSH2 0xCD6 JUMP JUMPDEST DUP2 PUSH32 0x7F0F3217F4C79150BE98065671BE32C68869EE81BB33B1B3427EE5931059D9E0 TIMESTAMP PUSH1 0x40 MLOAD PUSH2 0xA2B SWAP2 DUP2 MSTORE PUSH1 0x20 ADD SWAP1 JUMP JUMPDEST PUSH1 0x40 MLOAD DUP1 SWAP2 SUB SWAP1 LOG2 POP POP JUMP JUMPDEST PUSH32 0x0 DUP3 EQ PUSH2 0xA96 JUMPI PUSH1 0x40 MLOAD PUSH3 0x461BCD PUSH1 0xE5 SHL DUP2 MSTORE PUSH1 0x20 PUSH1 0x4 DUP3 ADD MSTORE PUSH1 0xD PUSH1 0x24 DUP3 ADD MSTORE PUSH13 0xE0C2D2E440DAD2E6DAC2E8C6D PUSH1 0x9B SHL PUSH1 0x44 DUP3 ADD MSTORE PUSH1 0x64 ADD PUSH2 0x34A JUMP JUMPDEST PUSH1 0x0 DUP3 DUP2 MSTORE PUSH1 0x2 PUSH1 0x20 MSTORE PUSH1 0x40 SWAP1 KECCAK256 DUP1 SLOAD ISZERO DUP1 ISZERO SWAP1 PUSH2 0xAB9 JUMPI POP PUSH1 0x1 DUP2 ADD SLOAD PUSH1 0xFF AND ISZERO JUMPDEST PUSH2 0xAF5 JUMPI PUSH1 0x40 MLOAD PUSH3 0x461BCD PUSH1 0xE5 SHL DUP2 MSTORE PUSH1 0x20 PUSH1 0x4 DUP3 ADD MSTORE PUSH1 0xD PUSH1 0x24 DUP3 ADD MSTORE PUSH13 0xDCDE40DEE0CADC40C4C2E8C6D PUSH1 0x9B SHL PUSH1 0x44 DUP3 ADD MSTORE PUSH1 0x64 ADD PUSH2 0x34A JUMP JUMPDEST PUSH1 0x0 DUP3 GT PUSH2 0xB2E JUMPI PUSH1 0x40 MLOAD PUSH3 0x461BCD PUSH1 0xE5 SHL DUP2 MSTORE PUSH1 0x4 ADD PUSH2 0x34A SWAP1 PUSH1 0x20 DUP1 DUP3 MSTORE PUSH1 0x4 SWAP1 DUP3 ADD MSTORE PUSH4 0x7A65726F PUSH1 0xE0 SHL PUSH1 0x40 DUP3 ADD MSTORE PUSH1 0x60 ADD SWAP1 JUMP JUMPDEST PUSH1 0x40 MLOAD PUSH4 0x23B872DD PUSH1 0xE0 SHL DUP2 MSTORE CALLER PUSH1 0x4 DUP3 ADD MSTORE ADDRESS PUSH1 0x24 DUP3 ADD MSTORE PUSH1 0x44 DUP2 ADD DUP4 SWAP1 MSTORE PUSH32 0x0 PUSH1 0x1 PUSH1 0x1 PUSH1 0xA0 SHL SUB AND SWAP1 PUSH4 0x23B872DD SWAP1 PUSH1 0x64 ADD PUSH1 0x20 PUSH1 0x40 MLOAD DUP1 DUP4 SUB DUP2 PUSH1 0x0 DUP8 GAS CALL ISZERO DUP1 ISZERO PUSH2 0xBA1 JUMPI RETURNDATASIZE PUSH1 0x0 DUP1 RETURNDATACOPY RETURNDATASIZE PUSH1 0x0 REVERT JUMPDEST POP POP POP POP PUSH1 0x40 MLOAD RETURNDATASIZE PUSH1 0x1F NOT PUSH1 0x1F DUP3 ADD AND DUP3 ADD DUP1 PUSH1 0x40 MSTORE POP DUP2 ADD SWAP1 PUSH2 0xBC5 SWAP2 SWAP1 PUSH2 0xDB6 JUMP JUMPDEST PUSH2 0xC05 JUMPI PUSH1 0x40 MLOAD PUSH3 0x461BCD PUSH1 0xE5 SHL DUP2 MSTORE PUSH1 0x20 PUSH1 0x4 DUP3 ADD MSTORE PUSH1 0x11 PUSH1 0x24 DUP3 ADD MSTORE PUSH17 0x1D1C985B9CD9995C919C9BDB4819985A5B PUSH1 0x7A SHL PUSH1 0x44 DUP3 ADD MSTORE PUSH1 0x64 ADD PUSH2 0x34A JUMP JUMPDEST CALLER PUSH1 0x0 SWAP1 DUP2 MSTORE PUSH1 0x6 DUP3 ADD PUSH1 0x20 MSTORE PUSH1 0x40 SWAP1 KECCAK256 SLOAD PUSH1 0xFF AND PUSH2 0xC61 JUMPI CALLER PUSH1 0x0 DUP2 DUP2 MSTORE PUSH1 0x6 DUP4 ADD PUSH1 0x20 SWAP1 DUP2 MSTORE PUSH1 0x40 DUP3 KECCAK256 DUP1 SLOAD PUSH1 0xFF NOT AND PUSH1 0x1 SWAP1 DUP2 OR SWAP1 SWAP2 SSTORE PUSH1 0x4 DUP6 ADD DUP1 SLOAD SWAP2 DUP3 ADD DUP2 SSTORE DUP4 MSTORE SWAP2 KECCAK256 ADD DUP1 SLOAD PUSH1 0x1 PUSH1 0x1 PUSH1 0xA0 SHL SUB NOT AND SWAP1 SWAP2 OR SWAP1 SSTORE JUMPDEST CALLER PUSH1 0x0 SWAP1 DUP2 MSTORE PUSH1 0x5 DUP3 ADD PUSH1 0x20 MSTORE PUSH1 0x40 DUP2 KECCAK256 DUP1 SLOAD DUP5 SWAP3 SWAP1 PUSH2 0xC82 SWAP1 DUP5 SWAP1 PUSH2 0xD9D JUMP JUMPDEST SWAP3 POP POP DUP2 SWAP1 SSTORE POP DUP2 DUP2 PUSH1 0x2 ADD PUSH1 0x0 DUP3 DUP3 SLOAD PUSH2 0xC9D SWAP2 SWAP1 PUSH2 0xD9D JUMP JUMPDEST SWAP1 SWAP2 SSTORE POP POP PUSH1 0x40 MLOAD DUP3 DUP2 MSTORE CALLER SWAP1 DUP5 SWAP1 PUSH32 0x679913ED0114150650D75872172932E8ECDBE786961C1E7C57B03A4B044B7090 SWAP1 PUSH1 0x20 ADD PUSH2 0x427 JUMP JUMPDEST POP DUP1 SLOAD PUSH1 0x0 DUP3 SSTORE SWAP1 PUSH1 0x0 MSTORE PUSH1 0x20 PUSH1 0x0 KECCAK256 SWAP1 DUP2 ADD SWAP1 PUSH2 0xCF4 SWAP2 SWAP1 PUSH2 0xCF7 JUMP JUMPDEST POP JUMP JUMPDEST JUMPDEST DUP1 DUP3 GT ISZERO PUSH2 0xD0C JUMPI PUSH1 0x0 DUP2 SSTORE PUSH1 0x1 ADD PUSH2 0xCF8 JUMP JUMPDEST POP SWAP1 JUMP JUMPDEST PUSH1 0x0 PUSH1 0x20 DUP3 DUP5 SUB SLT ISZERO PUSH2 0xD22 JUMPI PUSH1 0x0 DUP1 REVERT JUMPDEST POP CALLDATALOAD SWAP2 SWAP1 POP JUMP JUMPDEST PUSH1 0x0 DUP1 PUSH1 0x40 DUP4 DUP6 SUB SLT ISZERO PUSH2 0xD3C JUMPI PUSH1 0x0 DUP1 REVERT JUMPDEST DUP3 CALLDATALOAD SWAP2 POP PUSH1 0x20 DUP4 ADD CALLDATALOAD PUSH1 0x1 PUSH1 0x1 PUSH1 0xA0 SHL SUB DUP2 AND DUP2 EQ PUSH2 0xD5A JUMPI PUSH1 0x0 DUP1 REVERT JUMPDEST DUP1 SWAP2 POP POP SWAP3 POP SWAP3 SWAP1 POP JUMP JUMPDEST PUSH1 0x0 DUP1 PUSH1 0x40 DUP4 DUP6 SUB SLT ISZERO PUSH2 0xD78 JUMPI PUSH1 0x0 DUP1 REVERT JUMPDEST POP POP DUP1 CALLDATALOAD SWAP3 PUSH1 0x20 SWAP1 SWAP2 ADD CALLDATALOAD SWAP2 POP JUMP JUMPDEST PUSH4 0x4E487B71 PUSH1 0xE0 SHL PUSH1 0x0 MSTORE PUSH1 0x11 PUSH1 0x4 MSTORE PUSH1 0x24 PUSH1 0x0 REVERT JUMPDEST DUP1 DUP3 ADD DUP1 DUP3 GT ISZERO PUSH2 0xDB0 JUMPI PUSH2 0xDB0 PUSH2 0xD87 JUMP JUMPDEST SWAP3 SWAP2 POP POP JUMP JUMPDEST PUSH1 0x0 PUSH1 0x20 DUP3 DUP5 SUB SLT ISZERO PUSH2 0xDC8 JUMPI PUSH1 0x0 DUP1 REVERT JUMPDEST DUP2 MLOAD DUP1 ISZERO ISZERO DUP2 EQ PUSH2 0xDD8 JUMPI PUSH1 0x0 DUP1 REVERT JUMPDEST SWAP4 SWAP3 POP POP POP JUMP JUMPDEST PUSH4 0x4E487B71 PUSH1 0xE0 SHL PUSH1 0x0 MSTORE PUSH1 0x41 PUSH1 0x4 MSTORE PUSH1 0x24 PUSH1 0x0 REVERT JUMPDEST PUSH4 0x4E487B71 PUSH1 0xE0 SHL PUSH1 0x0 MSTORE PUSH1 0x32 PUSH1 0x4 MSTORE PUSH1 0x24 PUSH1 0x0 REVERT JUMPDEST PUSH1 0x0 PUSH1 0xA0 DUP3 ADD DUP8 DUP4 MSTORE PUSH1 0x20 DUP8 PUSH1 0x20 DUP6 ADD MSTORE PUSH1 0xA0 PUSH1 0x40 DUP6 ADD MSTORE DUP2 DUP8 MLOAD DUP1 DUP5 MSTORE PUSH1 0xC0 DUP7 ADD SWAP2 POP PUSH1 0x20 DUP10 ADD SWAP4 POP PUSH1 0x0 JUMPDEST DUP2 DUP2 LT ISZERO PUSH2 0xE5D JUMPI DUP5 MLOAD PUSH1 0x1 PUSH1 0x1 PUSH1 0xA0 SHL SUB AND DUP4 MSTORE SWAP4 DUP4 ADD SWAP4 SWAP2 DUP4 ADD SWAP2 PUSH1 0x1 ADD PUSH2 0xE38 JUMP JUMPDEST POP POP PUSH1 0x1 PUSH1 0x1 PUSH1 0xA0 SHL SUB SWAP7 SWAP1 SWAP7 AND PUSH1 0x60 DUP6 ADD MSTORE POP POP POP PUSH1 0x80 ADD MSTORE SWAP4 SWAP3 POP POP POP JUMP JUMPDEST PUSH1 0x0 PUSH1 0x20 DUP1 DUP4 DUP6 SUB SLT ISZERO PUSH2 0xE91 JUMPI PUSH1 0x0 DUP1 REVERT JUMPDEST DUP3 MLOAD PUSH8 0xFFFFFFFFFFFFFFFF DUP1 DUP3 GT ISZERO PUSH2 0xEA9 JUMPI PUSH1 0x0 DUP1 REVERT JUMPDEST DUP2 DUP6 ADD SWAP2 POP DUP6 PUSH1 0x1F DUP4 ADD SLT PUSH2 0xEBD JUMPI PUSH1 0x0 DUP1 REVERT JUMPDEST DUP2 MLOAD DUP2 DUP2 GT ISZERO PUSH2 0xECF JUMPI PUSH2 0xECF PUSH2 0xDDF JUMP JUMPDEST DUP1 PUSH1 0x5 SHL PUSH1 0x40 MLOAD PUSH1 0x1F NOT PUSH1 0x3F DUP4 ADD AND DUP2 ADD DUP2 DUP2 LT DUP6 DUP3 GT OR ISZERO PUSH2 0xEF4 JUMPI PUSH2 0xEF4 PUSH2 0xDDF JUMP JUMPDEST PUSH1 0x40 MSTORE SWAP2 DUP3 MSTORE DUP5 DUP3 ADD SWAP3 POP DUP4 DUP2 ADD DUP6 ADD SWAP2 DUP9 DUP4 GT ISZERO PUSH2 0xF12 JUMPI PUSH1 0x0 DUP1 REVERT JUMPDEST SWAP4 DUP6 ADD SWAP4 JUMPDEST DUP3 DUP6 LT ISZERO PUSH2 0xF30 JUMPI DUP5 MLOAD DUP5 MSTORE SWAP4 DUP6 ADD SWAP4 SWAP3 DUP6 ADD SWAP3 PUSH2 0xF17 JUMP JUMPDEST SWAP9 SWAP8 POP POP POP POP POP POP POP POP JUMP JUMPDEST DUP2 DUP2 SUB DUP2 DUP2 GT ISZERO PUSH2 0xDB0 JUMPI PUSH2 0xDB0 PUSH2 0xD87 JUMP JUMPDEST PUSH1 0x0 PUSH1 0x1 DUP3 ADD PUSH2 0xF61 JUMPI PUSH2 0xF61 PUSH2 0xD87 JUMP JUMPDEST POP PUSH1 0x1 ADD SWAP1 JUMP JUMPDEST DUP1 DUP3 MUL DUP2 ISZERO DUP3 DUP3 DIV DUP5 EQ OR PUSH2 0xDB0 JUMPI PUSH2 0xDB0 PUSH2 0xD87 JUMP JUMPDEST PUSH1 0x0 DUP3 PUSH2 0xF9C JUMPI PUSH4 0x4E487B71 PUSH1 0xE0 SHL PUSH1 0x0 MSTORE PUSH1 0x12 PUSH1 0x4 MSTORE PUSH1 0x24 PUSH1 0x0 REVERT JUMPDEST POP DIV SWAP1 JUMP INVALID LOG2 PUSH5 0x6970667358 0x22 SLT KECCAK256 JUMPI SWAP12 LT 0x22 SIGNEXTEND TIMESTAMP PUSH29 0xCDB09ECE22979A28F76EDB673C11716E2B54A0BB64FDFEFAEA64736F6C PUSH4 0x43000819 STOP CALLER "},"methodIdentifiers":{"USDC()":"89a30271","WETH()":"ad5c4648","batchCounter()":"68233eef","claim(uint256)":"379607f5","claimable(uint256,address)":"a0c7f71c","contribute(bytes32,uint256)":"b9539642","executeBatch(bytes32)":"5d6e62b2","kTarget()":"1e41d4be","openBatch(bytes32)":"83c06741","pairKey()":"06f94331","router()":"f887ea40","timeoutSec()":"e55ae037","vault()":"fbfa77cf"}}}}}