{
  "_format": "hh-sol-artifact-1",
  "contractName": "MockRouter",
  "sourceName": "contracts/MockRouter.sol",
  "abi": [
    {
      "inputs": [
        {
          "internalType": "uint256",
          "name": "amountIn",
          "type": "uint256"
        },
        {
          "internalType": "uint256",
          "name": "",
          "type": "uint256"
        },
        {
          "internalType": "address[]",
          "name": "",
          "type": "address[]"
        },
        {
          "internalType": "address",
          "name": "to",
          "type": "address"
        },
        {
          "internalType": "uint256",
          "name": "",
          "type": "uint256"
        }
      ],
      "name": "swapExactTokensForETH",
      "outputs": [
        {
          "internalType": "uint256[]",
          "name": "amounts",
          "type": "uint256[]"
        }
      ],
      "stateMutability": "nonpayable",
      "type": "function"
    },
    {
      "stateMutability": "payable",
      "type": "receive"
    }
  ],
  "bytecode": "0x6080604052348015600f57600080fd5b506102b28061001f6000396000f3fe6080604052600436106100225760003560e01c806318cbafe51461002e57600080fd5b3661002957005b600080fd5b34801561003a57600080fd5b5061004e610049366004610180565b610064565b60405161005b9190610222565b60405180910390f35b60606000836001600160a01b03168860405160006040518083038185875af1925050503d80600081146100b3576040519150601f19603f3d011682016040523d82523d6000602084013e6100b8565b606091505b50509050806100f95760405162461bcd60e51b81526020600482015260096024820152681cd95b990819985a5b60ba1b604482015260640160405180910390fd5b6040805160028082526060820183529091602083019080368337019050509150878260008151811061012d5761012d610266565b602002602001018181525050878260018151811061014d5761014d610266565b602002602001018181525050509695505050505050565b80356001600160a01b038116811461017b57600080fd5b919050565b60008060008060008060a0878903121561019957600080fd5b8635955060208701359450604087013567ffffffffffffffff808211156101bf57600080fd5b818901915089601f8301126101d357600080fd5b8135818111156101e257600080fd5b8a60208260051b85010111156101f757600080fd5b60208301965080955050505061020f60608801610164565b9150608087013590509295509295509295565b6020808252825182820181905260009190848201906040850190845b8181101561025a5783518352928401929184019160010161023e565b50909695505050505050565b634e487b7160e01b600052603260045260246000fdfea26469706673582212209827cbe9b28a4d2ffdedeb04bb26dfecd5d61480242b9f46033036577e4c974164736f6c63430008190033",
  "linkReferences": {},
  "deployedLinkReferences": {}
}