{
  "_format": "hh-sol-artifact-1",
  "contractName": "Batcher",
  "sourceName": "contracts/Batcher.sol",
  "abi": [
    {
      "inputs": [
        {
          "internalType": "address",
          "name": "usdc",
          "type": "address"
        },
        {
          "internalType": "address",
          "name": "uniRouter",
          "type": "address"
        },
        {
          "internalType": "address",
          "name": "_vault",
          "type": "address"
        },
        {
          "internalType": "address",
          "name": "_weth",
          "type": "address"
        },
        {
          "internalType": "bytes32",
          "name": "_pairKey",
          "type": "bytes32"
        },
        {
          "internalType": "uint256",
          "name": "_kTarget",
          "type": "uint256"
        },
        {
          "internalType": "uint256",
          "name": "_timeoutSec",
          "type": "uint256"
        }
      ],
      "stateMutability": "nonpayable",
      "type": "constructor"
    },
    {
      "anonymous": false,
      "inputs": [
        {
          "indexed": true,
          "internalType": "bytes32",
          "name": "pair",
          "type": "bytes32"
        },
        {
          "indexed": true,
          "internalType": "uint256",
          "name": "batchId",
          "type": "uint256"
        },
        {
          "indexed": false,
          "internalType": "uint256",
          "name": "totalIn",
          "type": "uint256"
        },
        {
          "indexed": false,
          "internalType": "uint256",
          "name": "totalOut",
          "type": "uint256"
        },
        {
          "indexed": false,
          "internalType": "uint256",
          "name": "k",
          "type": "uint256"
        }
      ],
      "name": "BatchExecuted",
      "type": "event"
    },
    {
      "anonymous": false,
      "inputs": [
        {
          "indexed": true,
          "internalType": "bytes32",
          "name": "pair",
          "type": "bytes32"
        },
        {
          "indexed": false,
          "internalType": "uint256",
          "name": "openedAt",
          "type": "uint256"
        }
      ],
      "name": "BatchOpened",
      "type": "event"
    },
    {
      "anonymous": false,
      "inputs": [
        {
          "indexed": true,
          "internalType": "uint256",
          "name": "batchId",
          "type": "uint256"
        },
        {
          "indexed": true,
          "internalType": "address",
          "name": "user",
          "type": "address"
        },
        {
          "indexed": false,
          "internalType": "uint256",
          "name": "amount",
          "type": "uint256"
        }
      ],
      "name": "Claimed",
      "type": "event"
    },
    {
      "anonymous": false,
      "inputs": [
        {
          "indexed": true,
          "internalType": "bytes32",
          "name": "pair",
          "type": "bytes32"
        },
        {
          "indexed": true,
          "internalType": "address",
          "name": "user",
          "type": "address"
        },
        {
          "indexed": false,
          "internalType": "uint256",
          "name": "amount",
          "type": "uint256"
        }
      ],
      "name": "Contributed",
      "type": "event"
    },
    {
      "inputs": [],
      "name": "USDC",
      "outputs": [
        {
          "internalType": "contract IERC20",
          "name": "",
          "type": "address"
        }
      ],
      "stateMutability": "view",
      "type": "function"
    },
    {
      "inputs": [],
      "name": "WETH",
      "outputs": [
        {
          "internalType": "address",
          "name": "",
          "type": "address"
        }
      ],
      "stateMutability": "view",
      "type": "function"
    },
    {
      "inputs": [],
      "name": "batchCounter",
      "outputs": [
        {
          "internalType": "uint256",
          "name": "",
          "type": "uint256"
        }
      ],
      "stateMutability": "view",
      "type": "function"
    },
    {
      "inputs": [
        {
          "internalType": "uint256",
          "name": "batchId",
          "type": "uint256"
        }
      ],
      "name": "claim",
      "outputs": [],
      "stateMutability": "nonpayable",
      "type": "function"
    },
    {
      "inputs": [
        {
          "internalType": "uint256",
          "name": "",
          "type": "uint256"
        },
        {
          "internalType": "address",
          "name": "",
          "type": "address"
        }
      ],
      "name": "claimable",
      "outputs": [
        {
          "internalType": "uint256",
          "name": "",
          "type": "uint256"
        }
      ],
      "stateMutability": "view",
      "type": "function"
    },
    {
      "inputs": [
        {
          "internalType": "bytes32",
          "name": "pair",
          "type": "bytes32"
        },
        {
          "internalType": "uint256",
          "name": "amount",
          "type": "uint256"
        }
      ],
      "name": "contribute",
      "outputs": [],
      "stateMutability": "nonpayable",
      "type": "function"
    },
    {
      "inputs": [
        {
          "internalType": "bytes32",
          "name": "pair",
          "type": "bytes32"
        }
      ],
      "name": "executeBatch",
      "outputs": [],
      "stateMutability": "nonpayable",
      "type": "function"
    },
    {
      "inputs": [],
      "name": "kTarget",
      "outputs": [
        {
          "internalType": "uint256",
          "name": "",
          "type": "uint256"
        }
      ],
      "stateMutability": "view",
      "type": "function"
    },
    {
      "inputs": [
        {
          "internalType": "bytes32",
          "name": "pair",
          "type": "bytes32"
        }
      ],
      "name": "openBatch",
      "outputs": [],
      "stateMutability": "nonpayable",
      "type": "function"
    },
    {
      "inputs": [],
      "name": "pairKey",
      "outputs": [
        {
          "internalType": "bytes32",
          "name": "",
          "type": "bytes32"
        }
      ],
      "stateMutability": "view",
      "type": "function"
    },
    {
      "inputs": [],
      "name": "router",
      "outputs": [
        {
          "internalType": "contract IUniswapRouter",
          "name": "",
          "type": "address"
        }
      ],
      "stateMutability": "view",
      "type": "function"
    },
    {
      "inputs": [],
      "name": "timeoutSec",
      "outputs": [
        {
          "internalType": "uint256",
          "name": "",
          "type": "uint256"
        }
      ],
      "stateMutability": "view",
      "type": "function"
    },
    {
      "inputs": [],
      "name": "vault",
      "outputs": [
        {
          "internalType": "contract IIntentVault",
          "name": "",
          "type": "address"
        }
      ],
      "stateMutability": "view",
      "type": "function"
    },
    {
      "stateMutability": "payable",
      "type": "receive"
    }
  ],
  "bytecode": "0x61012060405234801561001157600080fd5b5060405161114338038061114383398101604081905261003091610080565b6001600160a01b0396871660805294861660a05292851660c052931660e052610100929092526000919091556001556100f1565b80516001600160a01b038116811461007b57600080fd5b919050565b600080600080600080600060e0888a03121561009b57600080fd5b6100a488610064565b96506100b260208901610064565b95506100c060408901610064565b94506100ce60608901610064565b93506080880151925060a0880151915060c0880151905092959891949750929550565b60805160a05160c05160e05161010051610fd761016c6000396000818160e4015281816109140152610a3901526000818161023d01526106b9015260006102db0152600081816102a701528181610586015261070b0152600081816101b901528181610559015281816106650152610b500152610fd76000f3fe6080604052600436106100c65760003560e01c806389a302711161007f578063b953964211610059578063b95396421461025f578063e55ae0371461027f578063f887ea4014610295578063fbfa77cf146102c957600080fd5b806389a30271146101a7578063a0c7f71c146101f3578063ad5c46481461022b57600080fd5b806306f94331146100d25780631e41d4be14610119578063379607f51461012f5780635d6e62b21461015157806368233eef1461017157806383c067411461018757600080fd5b366100cd57005b600080fd5b3480156100de57600080fd5b506101067f000000000000000000000000000000000000000000000000000000000000000081565b6040519081526020015b60405180910390f35b34801561012557600080fd5b5061010660005481565b34801561013b57600080fd5b5061014f61014a366004610d10565b6102fd565b005b34801561015d57600080fd5b5061014f61016c366004610d10565b610434565b34801561017d57600080fd5b5061010660035481565b34801561019357600080fd5b5061014f6101a2366004610d10565b610912565b3480156101b357600080fd5b506101db7f000000000000000000000000000000000000000000000000000000000000000081565b6040516001600160a01b039091168152602001610110565b3480156101ff57600080fd5b5061010661020e366004610d29565b600460209081526000928352604080842090915290825290205481565b34801561023757600080fd5b506101db7f000000000000000000000000000000000000000000000000000000000000000081565b34801561026b57600080fd5b5061014f61027a366004610d65565b610a37565b34801561028b57600080fd5b5061010660015481565b3480156102a157600080fd5b506101db7f000000000000000000000000000000000000000000000000000000000000000081565b3480156102d557600080fd5b506101db7f000000000000000000000000000000000000000000000000000000000000000081565b6000818152600460209081526040808320338452909152902054806103535760405162461bcd60e51b81526020600482015260076024820152666e6f7468696e6760c81b60448201526064015b60405180910390fd5b60008281526004602090815260408083203380855292528083208390555183908381818185875af1925050503d80600081146103ab576040519150601f19603f3d011682016040523d82523d6000602084013e6103b0565b606091505b50509050806103f75760405162461bcd60e51b8152602060048201526013602482015272195d1a081d1c985b9cd9995c8819985a5b1959606a1b604482015260640161034a565b604051828152339084907f4ec90e965519d92681267467f775ada5bd214aa92c0dc93d90a5e880ce9ed026906020015b60405180910390a3505050565b60008181526002602052604090208054158015906104575750600181015460ff16155b6104935760405162461bcd60e51b815260206004820152600d60248201526c0dcde40dee0cadc40c4c2e8c6d609b1b604482015260640161034a565b60005460048201541015806104b6575060015481546104b29190610d9d565b4210155b6104f75760405162461bcd60e51b815260206004820152601260248201527118dbdb991a5d1a5bdb9cc81b9bdd081b595d60721b604482015260640161034a565b600081600201541161053d5760405162461bcd60e51b815260206004820152600f60248201526e06e6f7468696e6720746f207377617608c1b604482015260640161034a565b600281015460405163095ea7b360e01b81526001600160a01b037f0000000000000000000000000000000000000000000000000000000000000000169163095ea7b3916105c2917f0000000000000000000000000000000000000000000000000000000000000000916004016001600160a01b03929092168252602082015260400190565b6020604051808303816000875af11580156105e1573d6000803e3d6000fd5b505050506040513d601f19601f820116820180604052508101906106059190610db6565b6106425760405162461bcd60e51b815260206004820152600e60248201526d185c1c1c9bdd994819985a5b195960921b604482015260640161034a565b6040805160028082526060820183526000926020830190803683370190505090507f00000000000000000000000000000000000000000000000000000000000000008160008151811061069757610697610df5565b60200260200101906001600160a01b031690816001600160a01b0316815250507f0000000000000000000000000000000000000000000000000000000000000000816001815181106106eb576106eb610df5565b6001600160a01b03928316602091820292909201015260028301546000917f000000000000000000000000000000000000000000000000000000000000000016906318cbafe590838530610741426104b0610d9d565b6040518663ffffffff1660e01b8152600401610761959493929190610e0b565b6000604051808303816000875af1158015610780573d6000803e3d6000fd5b505050506040513d6000823e601f3d908101601f191682016040526107a89190810190610e7e565b9050600081600183516107bb9190610f3c565b815181106107cb576107cb610df5565b60209081029190910101516001858101805460ff1916909117905560038086018290558054919250600091829061080190610f4f565b9182905550905060005b60048601548110156108bd57600086600401828154811061082e5761082e610df5565b600091825260208083209091015460028a01546001600160a01b0390911680845260058b019092526040832054919350906108699087610f68565b6108739190610f7f565b60008581526004602090815260408083206001600160a01b03871684529091528120805492935083929091906108aa908490610d9d565b90915550506001909201915061080b9050565b50600285015460048601546040805192835260208301859052820152819087907f9d65322d939fd0a2d0032c87248c8e9f9b14cc177e27b2c049cb4b0356e5160b9060600160405180910390a3505050505050565b7f000000000000000000000000000000000000000000000000000000000000000081146109715760405162461bcd60e51b815260206004820152600d60248201526c0e0c2d2e440dad2e6dac2e8c6d609b1b604482015260640161034a565b6000818152600260205260409020805415806109915750600181015460ff165b6109cc5760405162461bcd60e51b815260206004820152600c60248201526b30b63932b0b23c9037b832b760a11b604482015260640161034a565b42815560018101805460ff19169055600060028201819055600382018190556109f9906004830190610cd6565b817f7f0f3217f4c79150be98065671be32c68869ee81bb33b1b3427ee5931059d9e042604051610a2b91815260200190565b60405180910390a25050565b7f00000000000000000000000000000000000000000000000000000000000000008214610a965760405162461bcd60e51b815260206004820152600d60248201526c0e0c2d2e440dad2e6dac2e8c6d609b1b604482015260640161034a565b6000828152600260205260409020805415801590610ab95750600181015460ff16155b610af55760405162461bcd60e51b815260206004820152600d60248201526c0dcde40dee0cadc40c4c2e8c6d609b1b604482015260640161034a565b60008211610b2e5760405162461bcd60e51b815260040161034a906020808252600490820152637a65726f60e01b604082015260600190565b6040516323b872dd60e01b8152336004820152306024820152604481018390527f00000000000000000000000000000000000000000000000000000000000000006001600160a01b0316906323b872dd906064016020604051808303816000875af1158015610ba1573d6000803e3d6000fd5b505050506040513d601f19601f82011682018060405250810190610bc59190610db6565b610c055760405162461bcd60e51b81526020600482015260116024820152701d1c985b9cd9995c919c9bdb4819985a5b607a1b604482015260640161034a565b33600090815260068201602052604090205460ff16610c615733600081815260068301602090815260408220805460ff191660019081179091556004850180549182018155835291200180546001600160a01b03191690911790555b33600090815260058201602052604081208054849290610c82908490610d9d565b9250508190555081816002016000828254610c9d9190610d9d565b9091555050604051828152339084907f679913ed0114150650d75872172932e8ecdbe786961c1e7c57b03a4b044b709090602001610427565b5080546000825590600052602060002090810190610cf49190610cf7565b50565b5b80821115610d0c5760008155600101610cf8565b5090565b600060208284031215610d2257600080fd5b5035919050565b60008060408385031215610d3c57600080fd5b8235915060208301356001600160a01b0381168114610d5a57600080fd5b809150509250929050565b60008060408385031215610d7857600080fd5b50508035926020909101359150565b634e487b7160e01b600052601160045260246000fd5b80820180821115610db057610db0610d87565b92915050565b600060208284031215610dc857600080fd5b81518015158114610dd857600080fd5b9392505050565b634e487b7160e01b600052604160045260246000fd5b634e487b7160e01b600052603260045260246000fd5b600060a08201878352602087602085015260a0604085015281875180845260c08601915060208901935060005b81811015610e5d5784516001600160a01b031683529383019391830191600101610e38565b50506001600160a01b03969096166060850152505050608001529392505050565b60006020808385031215610e9157600080fd5b825167ffffffffffffffff80821115610ea957600080fd5b818501915085601f830112610ebd57600080fd5b815181811115610ecf57610ecf610ddf565b8060051b604051601f19603f83011681018181108582111715610ef457610ef4610ddf565b604052918252848201925083810185019188831115610f1257600080fd5b938501935b82851015610f3057845184529385019392850192610f17565b98975050505050505050565b81810381811115610db057610db0610d87565b600060018201610f6157610f61610d87565b5060010190565b8082028115828204841417610db057610db0610d87565b600082610f9c57634e487b7160e01b600052601260045260246000fd5b50049056fea2646970667358221220579b10220b427ccdb09ece22979a28f76edb673c11716e2b54a0bb64fdfefaea64736f6c63430008190033",
  "linkReferences": {},
  "deployedLinkReferences": {}
}